:020000040800F2
:1000000018110020210100084D2900084925000889
:1000100035290008BD120008313500080000000035
:100020000000000000000000000000002B2F00086E
:100030003317000800000000712B00085131000840
:100040003B0100083B0100083B0100083B010008A0
:100050003B0100083B010008491800083B0100086B
:100060003B0100083B0100083B0100083B01000880
:100070003B0100083B0100083B0100083B01000870
:100080003B0100083B0100083B0100083B01000860
:100090003B0100083B0100083B0100083B01000850
:1000A0003B0100083B0100083B0100083B01000840
:1000B0003B0100083B0100083B0100083B01000830
:1000C0003B0100083B0100083B0100083B01000820
:1000D0003B0100083B010008B53100083B01000866
:1000E0003B0100083B0100083B010008DFF80CD091
:1000F00000F058FB00480047014400081811002098
:10010000EFF30980704780F309887047EFF30880A8
:10011000704780F30888704740BA7047C0BA70478C
:100120000648804706480047FEE7FEE7FEE7FEE791
:10013000FEE7FEE7FEE7FEE7FEE7FEE755310008D3
:10014000ED00000840EA01039B0703D009E008C95D
:10015000121F08C0042AFAD203E011F8013B00F88C
:10016000013B521EF9D27047D2B201E000F8012BD8
:10017000491EFBD270470022F6E710B513460A4627
:1001800004461946FFF7F0FF204610BD421C10F848
:10019000011B0029FBD1801A704700000FB400B585
:1001A0008DB010A909900B9000914FF0FF300A908C
:1001B00000200C9005480690054807906A4609A85B
:1001C0000F9900F009F90DB05DF814FBF503000874
:1001D000130400082DE9FF5F1D464FF0FF3BD5E9F2
:1001E000014691465F464FF00008A9697F1C0198BF
:1001F0008847296A824688470028F6D1BAF1FF3F2E
:100200000CD024F4C064002E19DD600614D5BAF1B8
:100210002B0F09D0BAF12D0F0ED103E0584604B0D0
:10022000BDE8F09F44F48064A9697F1C0198884769
:10023000761E8246002E02DDBAF1300F03D0B9F1EE
:10024000000F26D032E0A969761E44F400747F1CAA
:10025000019888478246002E05DDBAF1780F06D056
:10026000BAF1580F03D0B9F1000F10D01EE0B9F168
:10027000000F02D0B9F1100F18D1A969761E24F42D
:1002800000747F1C019888478246102002E00820F5
:1002900000E00A20814609E008FB0908A969761EEA
:1002A00044F400747F1C019888478246002E05DDC7
:1002B0004946504600F07BF80028EDDAE9690198DC
:1002C0008847A00502D46FF00100A8E7E00725D118
:1002D000600613D5600502D5C8F1000000E0404675
:1002E00029680A1D2A600968220501D5087015E0F1
:1002F000220701D5088011E008600FE02868011D81
:1003000029600068210502D580F8008006E02107F9
:1003100002D5A0F8008001E0C0F8008038467EE7F2
:1003200030B50B46014600202022012409E021FAC5
:1003300002F59D4205D303FA02F5491B04FA02F5C2
:100340002844151EA2F10102F1DC30BD2DE9F05F59
:100350000546002092469B46884606468146402434
:100360001BE0284641464746224600F03CFA5346E9
:100370005A46C01A914110D311461846224600F041
:1003800023FA2D1A67EB01084F462246012000216F
:1003900000F01AFA17EB00094E41201EA4F10104E7
:1003A000DFDC484631462A464346BDE8F09F3A28FE
:1003B00000D2303820F02002412A01D3A2F13700C8
:1003C000884201D34FF0FF307047000002681144AB
:1003D0001378016018467047D1600449516104499F
:1003E000116200211161114600F024BACD0300080A
:1003F0002B080008426842B1016811F8013B23B1A3
:10040000521EC0E90012184670470121C160881EC3
:10041000704742685AB1C368016843B983688B4228
:1004200005D0491E521CC0E90012002070474FF051
:10043000FF3070472DE9FE4F804681EA0300C00F70
:100440000C46009021F0004123F00045B8EB02007B
:10045000A94105D24046214690461C460B4602461D
:1004600023F00040104347D0270DC7F30A00C3F321
:100470000A510290401A019040286BDAC3F313002E
:1004800040F4801B0098924620B10023D2EB030A6F
:1004900063EB0B0B01985946C0F14002504600F047
:1004A00093F906460D4650465946019A00F0ABF9BD
:1004B00010EB08006141002487EA115284EAE773D7
:1004C0001A4340D0009A62B3019A012A4FEA0752B8
:1004D00015DC001B61EB02014FF0004202EA0752FB
:1004E000CDE90042001C41F5801132462B4600F058
:1004F00046FB03B0BDE8F08F40462146F9E7001BFC
:1005000061EB0201001C41F5801300185B412018CB
:10051000A2F5001747EB030140EAD570B6196D410B
:1005200011E06D084FEA360645EAC0754FEA0752FA
:10053000001B61EB0201001C41F5801149084FEAE4
:1005400030000019514132462B4603B0BDE8F04F50
:1005500000F006BB0098012240000023D0EB02020D
:1005600063EBE073009821464FEAE074B8EB0000BB
:1005700061EB0401E9E783F000435BE781F00041B0
:1005800058E72DE9FE4F81EA030404F0004421F00E
:10059000004100944FF0000B23F0004350EA0104A7
:1005A0005ED052EA03045BD0C3F30A54C1F30A5588
:1005B0002C44A4F2F3340194A0FB0254C1F31301C0
:1005C00041F48011C3F3130343F4801301FB02448D
:1005D00000FB034E840A970A44EA815447EA835792
:1005E000A4FB076802958D0A05FB07854FEA932C4B
:1005F00004FB0C542705029D4FEA065847EA1637BC
:10060000B5EB08056EEB070C870E920E47EA8117D3
:1006100042EA8312A7FB0201B6EB0B0164EB000474
:100620002B0D43EA0C335E1844EB1C50DA4651465E
:10063000E7FB0201C5F313044FEA0B3343EA1453FB
:100640004FEA0432019C43EA0603A4F10C0402942D
:10065000009CCDE900B400F092FA03B0BDE8F08F41
:1006600000200146F9E72DE9F04D81EA030404F08A
:10067000004B21F0004514464FF0000A23F00041E2
:1006800050EA050220D054EA01021DD0C5F30A57F2
:100690000246C5F31303C1F31300C1F30A5640F435
:1006A000801543F48013A7EB0608101BD64608F20A
:1006B000FD3873EB050002D308F1010801E0921840
:1006C0005B41B8F1000F03DA00200146BDE8F08D70
:1006D00000204FF48011064684460EE0171B73EB92
:1006E000050705D3121B63EB050306434CEA010C17
:1006F00049084FEA300092185B4150EA0107EDD1FA
:1007000052EA030012D082EA040083EA050108439A
:1007100005D0101BAB4106D20122002306E00022C7
:100720004FF0004302E06FF0010253101AEB060095
:100730004CEB085110EB0A0041EB0B01BDE8F04D0A
:1007400000F00EBAC1F30A52C1F3130140F2FF33B5
:1007500041F480119A4202DA00200146704740F2CB
:1007600033439A42A2F2334202DC524200F03BB8D9
:1007700000F02AB830B5041E71F1000404DB4FF01C
:100780000044404264EB0101141E73F1000405DBD8
:100790001C464FF00043524263EB0403994208BFEA
:1007A000904230BD064C074D06E0E06840F0010382
:1007B00094E8070098471034AC42F6D3FFF79AFC50
:1007C0001847000838470008202A04DB203A00FABE
:1007D00002F1002070479140C2F1200320FA03F398
:1007E000194390407047202A04DB203A21FA02F096
:1007F0000021704721FA02F3D040C2F1200291405B
:10080000084319467047202A06DBCB17203A41FAE5
:1008100002F043EAE07306E041FA02F3D040C2F18D
:1008200020029140084319467047C0B24FF4F0517E
:1008300000F0F4B92DE9F34F8BB04FF0000801F14F
:100840000C000C464FF0010B46460DF1080A0190D2
:100850006269012101989047051E2DD0252D2CD0CD
:10086000216A8847C0B16269012101989047216AD5
:1008700088470028F7D1411E62690198904700E03F
:10088000761CA1690B988847216A88470028F7D110
:10089000E1690B988847DBE7A1690B988847074611
:1008A000A84201D1761CD3E7E1690B9888477F1CE9
:1008B00002D1B8F1000F6FD046E1002762693D46D2
:1008C0003946019890472A2804D16269012101988C
:1008D00090470125DFF884926269012101989047D1
:1008E000A0F130010A290AD24F45E5DC07EB870168
:1008F00000EB4107303FDFD445F01005ECE7E90697
:1009000001D46FF000476C280AD04C2814D0682816
:1009100015D06A280DD074281CD07A281AD01DE072
:1009200062690121019890476C2802D045F00405C6
:1009300014E045F002050DE045F020050AE062698B
:10094000012101989047682802D045F0080505E08C
:1009500045F400656269012101989047C4E9015797
:1009600065283DD019DC58287AD00CDC452837D0D2
:1009700004DC252826D0412831D131E046282FD06B
:1009800047282CD12CE05B2877D0612828D0632819
:100990007CD0642823D15AE0D0E06F2848D008DC0E
:1009A00066281DD067281BD0692821D06E2816D153
:1009B00027E0702845D0732868D0752847D078285C
:1009C0000DD14DE0A1690B988847054625283FF4D5
:1009D00069AFE1690B9888476D1C3FF46AAFB3E0DB
:1009E00023466A466FF001000B99AFF300809EE04A
:1009F00045F040006060A80723464FF0000236D45F
:100A00003EE0E8077FF447AF2068011D21600068E1
:100A1000290501D506701BE7290701D5068017E7D0
:100A2000A90703D5F117C0E9006111E706600FE7D8
:100A300045F040006060A80723464FF0080216D436
:100A40001EE040F60E0125EA0100606016E045F068
:100A500040006060A80723464FF00A0207D40FE069
:100A600045F040006060A80708D5234610226FF0CB
:100A700001000B99AFF3008059E007E023461022F4
:100A80006FF001000B99FFF7A5FB50E04FF0000954
:100A90004F464B46632802D05B2806D040E0E8066C
:100AA00001D40120A06001273AE062690121019888
:100AB00090475E2805D14FF00109626949460198C7
:100AC0009047216939B900210A46534643F821204D
:100AD000491C0829FADBB0B3216969B9C11700EBD9
:100AE000D16253110AEB830122F01F02821A012006
:100AF0000B68904003430B606269012101989047A5
:100B00005D28E8D1B9F1000F09D00020514651F815
:100B10002020D24341F82020401C0828F7DB02ABFC
:100B2000224600976FF001000B99AFF30080002878
:100B30000CDA401C08D1BBF1000F05D04FF0FF309C
:100B40000DB0BDE8F08FFFE74046F9E7E90701D1B6
:100B500008F1010806444FF0000B79E6CCCCCC0C30
:100B600010B5141E73F1000408DA401C41F10001B5
:100B700092185B411A4301D120F0010010BD2DE90C
:100B8000F04D92469B4611B1B1FA81F202E0B0FA03
:100B900080F220329046FFF717FE04460F4640EAE7
:100BA0000A0041EA0B0153465A46084313D0114646
:100BB00053EA010019D0C8F140025046FFF713FE76
:100BC00005460E46504659464246FFF7FDFD08438E
:100BD00005D0012004E020463946BDE8F08D002014
:100BE000054346EAE0762C4337430A986305E40A56
:100BF000A0EB08000022FD0A44EA47540A3002D55F
:100C000000200146E9E7010510196941DDE90845C1
:100C100000196941BDE8F04DA2E700007F2801D925
:100C2000002208E0064A02EB5002C007127800D109
:100C3000120902F00F0201209040084070470000A6
:100C4000F845000810B501F081FC10BD2DE9F04712
:100C500007460D4616469846B5F5807F00DC0EB96E
:100C6000BDE8F087454501DC284600E04046814666
:100C7000002406E03919C8B200F007F83055601CAE
:100C800084B24C45F6DB00BFEAE770B505460026A6
:100C9000002401F008FDA02001F0EBFC0A2001F087
:100CA0007DFC0446012C01D1204670BD284601F090
:100CB000E0FC0A2001F072FC0446012C01D1204620
:100CC000F3E701F0F0FCA12001F0D3FC0A2001F0D1
:100CD00065FC0446012C01D12046E6E701F09EFCAC
:100CE0000646012001F0B6FC01F0EBFC3046DCE7E3
:100CF0002DE9F04107460D461646B6F5807F00DC2B
:100D00000DB9BDE8F081002409E0295D3A19D0B29F
:100D100000F009F8052000F00DFD601C84B2B4421B
:100D2000F3DB00BFEDE770B506460D46002401F089
:100D3000BAFCA02001F09DFC0A2001F02FFC044623
:100D4000012C01D1204670BD304601F092FC0A20F2
:100D500001F024FC0446012C01D12046F3E728468B
:100D600001F087FC0A2001F019FC0446012C01D196
:100D70002046E8E701F0A5FC2046E4E770B5002432
:100D8000002500F09DFA0546012D00D070BD00BF82
:100D900000F0DEFA04463CB900BF432251A155A041
:100DA00000F07EFC00BFF3E70A2C76D2DFE804F007
:100DB00095052633404D6176838B00BF4A2249A1B9
:100DC00055A000F06DFC00BF00F076FD04280AD0AD
:100DD00000BF4C2243A156A000F062FC00BF0120DE
:100DE00000F0B4FCD4E700BF50223EA157A000F0B1
:100DF00057FC00BF012000F0A9FCC9E700BF562244
:100E000038A159A000F04CFC00BF02F0A3FA012069
:100E100000F09CFCBCE700BF5D2232A15AA000F0AC
:100E20003FFC00BF02F000F9012000F08FFCAFE7AB
:100E300000BF64222BA15EA000F032FC00BF01F0D5
:100E4000EFFA012000F082FCA2E700BF6B2225A18F
:100E500061A000F025FC00BF00F0CEFD00BF6D22B8
:100E600020A167A000F01CFC00BF012000F06EFC78
:100E70008EE700BF73221BA16AA000F011FC00BF27
:100E800000F0A8FF00BF752216A16FA000F008FCBB
:100E900000BF012000F05AFC7AE71EE000BF7B2271
:100EA00010A172A000F0FCFB00BF00F01BFD0120B0
:100EB00000F04CFC6CE700BF82220AA174A000F095
:100EC000EFFB00BF62E700BF872206A177A000F01A
:100ED000E7FB00BF00F0A2F900BF00BF00BF00BFEA
:100EE00054E700005574696C69746965735C434D1F
:100EF000442E63005B25733A25645D20E8AFB7E9B3
:100F00008089E68BA9E6ADA3E7A1AEE79A84E58ADE
:100F10009FE883BD200D0A005B25733A25645D20A0
:100F2000E693A6E999A441E58CBA200D0A000000D9
:100F30005B25733A25645D2041E58CBAE693A6E90A
:100F400099A4E587BAE99499200D0A005B25733AC4
:100F500025645D2041E58CBAE693A6E999A4E5AE47
:100F60008CE6AF95200D0A005B25733A25645D2061
:100F7000E4B8B2E58FA3494150E4B88BE8BDBDE7C2
:100F8000A88BE5BA8F0D0A005B25733A25645D20B6
:100F9000E8AEBEE7BDAE415050E7A88BE5BA8FE79B
:100FA0008988E69CACE4BFA1E681AF200D0A000071
:100FB0005B25733A25645D20E88EB7E58F96415036
:100FC00050E7A88BE5BA8FE78988E69CACE4BFA11F
:100FD000E681AF200D0A00005B25733A25645D2091
:100FE000E4B88BE8BDBDE7A88BE5BA8FE588B0E52E
:100FF000A496E983A8666C617368200D0A0000005E
:101000005B25733A25645D20E5A496E983A8666CA8
:10101000617368E58699E585A5E7BB93E69D9F200A
:101020000D0A00005B25733A25645D20E4BDBFE72F
:1010300094A8E5A496E983A8666C617368E7A88B19
:10104000E5BA8F200D0A00005B25733A25645D2008
:10105000E58685E983A8666C617368E58699E58510
:10106000A5E7BB93E69D9F200D0A00005B25733A20
:1010700025645D20E588A0E999A4E5A496E983A804
:10108000666C617368E7A88BE5BA8F200D0A0000D3
:101090005B25733A25645D20E98080E587BAE59198
:1010A000BDE4BBA4E8A18C200D0A00005B25733AC7
:1010B00025645D20E9878DE696B0E590AFE58AA8C6
:1010C000200D0A0070B500BF4D2229A12CA000F010
:1010D000E7FA00BF00240DE000BFC4F103034F2274
:1010E00023A12FA000F0DCFA00BF012000F02EFBAE
:1010F000601CC4B2032CEFDB01F018FF01250126B0
:1011000000BF2B480068B0F1005F0AD32848006890
:101110002849884205D826490868FEF7FAFF0120C9
:1011200007E000BF3A2224A127A000F0B9FA00BFCF
:101130000020054600BF1E4840681D49884208D36C
:10114000084640682A49884203D819484468A0479D
:1011500000BF00BF462218A126A000F0A1FA00BFE0
:101160000020064605B10EB9002070BD0120FCE745
:1011700048617264776172655C426F6F742E6300C0
:101180005B25733A25645D20E58DB3E5B086E8B74D
:10119000B3E8BDACE588B0415050200D0A00000016
:1011A0005B25733A25645D2025640D0A000000006C
:1011B00000500008FF4F002048617264776172653B
:1011C0005C426F6F742E63005B25733A25645D206B
:1011D0004661696C20746F20676F20746F204150E6
:1011E000503A20496E7661696C2053500D0A000018
:1011F000000001085B25733A25645D204661696C37
:1012000020746F20676F20746F204150503A20493E
:101210006E7661696C2050430D0A000000BF5F22AA
:1012200013A117A000F03CFA00BF00240DE000BF9E
:10123000C4F1030361220EA11AA000F031FA00BF2D
:10124000012000F083FA601CC4B2032CEFDB01F034
:101250006DFE00BF1748006800F4E06016490843BF
:10126000001D14490860BFF34F8F00BF00BFFEE7A9
:1012700048617264776172655C426F6F742E6300BF
:101280005B25733A25645D20E8AEBEE5A487E58D55
:10129000B3E5B086E9878DE590AF2E2E2E200D0A9E
:1012A000000000005B25733A25645D2025640D0A6B
:1012B000000000000CED00E00000FA0500BFFEE7B2
:1012C00038B500BF632314220FA113A000F0E8F982
:1012D00000BF41F28834002000900DE001226946F1
:1012E0001A4801F03FFD9DF80000632801D101205C
:1012F00038BD012000F01EFA201EA4F101018CB2BD
:10130000ECD100BFF4E700005574696C697469653D
:10131000735C434D442E63005B25733A25645D2066
:101320003573E58685E68C89E4B88B20272563270D
:1013300020E8BF9BE585A520426F6F744C6F616408
:10134000657220434D44200D0A0000002800002053
:1013500008B500BF242235A138A000F0A1F900BFD4
:1013600000BF0123252231A13EA000F099F900BF62
:1013700000BF022326222DA141A000F091F900BF59
:1013800000BF0323272229A147A000F089F900BF4D
:1013900000BF0423282225A14EA000F081F900BF40
:1013A00000BF0523292221A155A000F079F900BF33
:1013B00000BF06232A221DA15CA000F071F900BF26
:1013C00000BF07232B2219A164A000F069F900BF18
:1013D00000BF08232C2215A16CA000F061F900BF0A
:1013E00000BF09232D2211A173A000F059F900BFFD
:1013F0000020009004E001226946764801F0B2FC2A
:101400009DF800000028F6D09DF800003038C0B2EA
:1014100000909DF80000012806DB9DF800000A28D6
:1014200002DA9DF8000008BD0020FCE75574696CE5
:1014300069746965735C434D442E63005B25733AA0
:1014400025645D202D2D2D2D2D2D426F6F744C6F39
:101450006164657220434D442D2D2D2D2D2D0D0AD7
:10146000000000005B25733A25645D205B25645D08
:10147000E693A6E999A441E58CBA200D0A00000084
:101480005B25733A25645D205B25645DE4B8B2E5B5
:101490008FA3494150E4B88BE8BDBDE7A88BE5BAFE
:1014A0008F200D0A000000005B25733A25645D2043
:1014B0005B25645DE8AEBEE7BDAE415050E7A88B4A
:1014C000E5BA8FE78988E69CACE4BFA1E681AF204E
:1014D0000D0A00005B25733A25645D205B25645D81
:1014E000E88EB7E58F96415050E7A88BE5BA8FE7B5
:1014F0008988E69CACE4BFA1E681AF200D0A00001C
:101500005B25733A25645D205B25645DE4B88BE858
:10151000BDBDE7A88BE5BA8FE588B0E5A496E98361
:10152000A8666C617368200D0A0000005B25733AA1
:1015300025645D205B25645DE4BDBFE794A8E5A458
:1015400096E983A8666C617368E4B8ADE79A84E7AE
:10155000A88BE5BA8F200D0A000000005B25733AC6
:1015600025645D205B25645DE588A0E999A4E5A478
:1015700096E983A8666C617368E4B8ADE79A84E77E
:10158000A88BE5BA8F200D0A000000005B25733A96
:1015900025645D205B25645DE98080E587BAE5917F
:1015A000BDE4BBA4E8A18CEFBC8CE8BF9BE585A59E
:1015B000415050200D0A00005B25733A25645D20E0
:1015C0005B25645DE9878DE696B0E590AFE58AA876
:1015D000200D0A002800002000B587B00121480432
:1015E00001F0C8FA0121042001F0E4FA18208DF876
:1015F0001B000420ADF8180003208DF81A0006A97E
:10160000254800F066FE48208DF81B000820ADF844
:10161000180003208DF81A0006A91F4800F059FE93
:101620001E4801F011FE4FF4E13002900020ADF8A9
:1016300014000C20ADF812000020ADF81000ADF839
:101640000E00ADF80C0002A9144801F0D3FE0122EF
:1016500040F22441114801F0A7FE012240F2255139
:101660000E4801F0A1FE4FF4407001F0A9F92620C8
:101670008DF8040001208DF8070002208DF8050088
:1016800000208DF8060001A801F062F9012103484D
:1016900001F0CEFD07B000BD00080140004400404D
:1016A0000FB400B5C1B043A800904FF4807101A8F9
:1016B000009B429A02F0D6F90020009001A800F0A9
:1016C0001BF841B05DF814FB10B5044621460948EB
:1016D00001F001FF00BF8021064801F003FE002851
:1016E000F9D000BF4021034801F0FCFD0028F9D0EB
:1016F00010BD00000044004070B50446002504E021
:10170000605DFFF7E1FF681CC5B2605D0028F7D19E
:1017100070BD70B505460E46082002F037FF04463E
:101720000CB9002070BD25806680002060602046D6
:10173000F8E7704700B5034603E04FF47A7000F015
:1017400011F8181EA3F10103F7D100BD10B504462E
:1017500003E04FF47A70FFF7EDFF201EA4F10104BF
:10176000F7D110BD00EBC001C9004FF0E02251617C
:10177000002191610521116100BF4FF0E02109694D
:1017800001F480310029F8D04FF0E021096921F0FF
:1017900001014FF0E02211617047000010B50F48C1
:1017A0000078AB280CD100BF0C4803780A220CA1AA
:1017B0000FA0FFF775FF00BF0120194908700BE06B
:1017C00000201749087000BF04480378112204A1C3
:1017D00014A0FFF765FF00BF10BD00003C0400200F
:1017E00048617264776172655C426F6F742E63004A
:1017F0005B25733A25645D204F54415F466C6167F9
:101800003A25782C2072656369657665206F6E6C69
:10181000696E65206F7461206576656E740D0A00CF
:101820001C0000205B25733A25645D204F54415F06
:10183000466C61673A25782C206E6F206F746120AA
:101840006576656E740D0A0010B50A20FFF772FF09
:10185000012000F01DF8012810D11021084800F0E7
:10186000CCFD20B91021064800F0D2FD03E0102184
:10187000034800F0CBFD012000F004F810BD00008B
:10188000000801400149086070470000140401404D
:10189000014600200022074B1B6803EA0102054BAA
:1018A00014331B680B4013B10AB1012000E0002083
:1018B000704700000004014070B500240CE00848A7
:1018C00000EB8426304600F027FF0546042D01D0AA
:1018D000284670BD601CC4B22C2CF0D32846F8E713
:1018E0000050000870B500240026002500BF042326
:1018F00040F287121AA11FA0FFF7D2FE00BF00F02E
:10190000A7F900F057FB044604EBC401264800EB9E
:101910008105286A40B900BF4FF4C77210A123A007
:10192000FFF7BEFE00BF70BD2604304601F002FE88
:1019300004EBC4011C4800EB810500202862202133
:101940002846FEF718FC01F0F1FA00BF23464FF4D9
:10195000CD7203A11EA0FFF7A3FE00BF00BFE2E708
:1019600048617264776172655C5732355136342E46
:10197000630000005B25733A25645D20E8AFB7E99A
:101980008089E68BA9E8A681E588A0E999A4E79A71
:1019900084E5A496E5AD98E59D97EFBC9A317E2548
:1019A00064200D0A00000000600400205B25733AEB
:1019B00025645D20E68980E98089E5A496E5AD98F7
:1019C000E59D97E4B8BAE7A9BA200D0A0000000027
:1019D0005B25733A25645D202564E58FB7E5A49601
:1019E000E5AD98E59D97E693A6E999A4E5AE8CE66A
:1019F000AF95200D0A0000002DE9F84F00240026C5
:101A0000A046A146A2460027A34600F021F900BF48
:101A1000042340F2091255A159A0FFF741FE00BF6F
:101A200000F0C8FA044604EBC401624800EB810BE5
:101A300004EBC4000BEB8000006A00282AD00020D1
:101A4000009000BF40F20F1248A15B48FFF728FE4C
:101A500000BF00BF0121684601F0A8FE9DF800000C
:101A60006E2803D09DF800004E2809D100BF4FF426
:101A70008A723EA151A0FFF713FE00BFBDE8F88FA8
:101A80009DF80000792804D09DF80000592800D066
:101A9000E0E700BF00BF23464FF48E7233A14DA094
:101AA000FFF7FEFD00BF4FEA0448C14640F2044183
:101AB0005248FEF760FB404601F03CFD204600F036
:101AC000CDFA00B9DAE700BF4FF4947227A14CA019
:101AD000FFF7E6FD00BF44E001F0F0FE07461C2FD3
:101AE00008D100BF4FF4977220A14DA0FFF7D8FD99
:101AF00000BFC3E71A2F12D1404890F8000400F04D
:101B0000070060B93D48D0F80004C10104EBC402ED
:101B1000284800EB8200016201F008FA22E0042666
:101B200000250BE009EB052A344800EB05214FF4B2
:101B30008072504601F0E8FD681CC5B2B542F1DB89
:101B400009EB06291A2F0CD12C48D0F80004C1014A
:101B500004EBC402174800EB8200016201F0E6F9D1
:101B60008CE7B9E700BF00BF88E7000048617264F6
:101B7000776172655C5732355136342E6300000050
:101B80005B25733A25645D20E8AFB7E98089E68B71
:101B9000A9E8A681E58699E585A5E79A84E5A49656
:101BA000E5AD98E59D97EFBC9A317E2564200D0A3E
:101BB00000000000600400207C4600085B25733AAA
:101BC00025645D20E58F96E6B688E58699E585A5CE
:101BD000200D0A005B25733A25645D20E58786E5C4
:101BE000A487E58699E585A52564E58FB7E5A496E4
:101BF000E5AD98E59D97200D0A0000001405002032
:101C00005B25733A25645D20E8AFB7E4B88AE4BC8D
:101C1000A062696EE69687E4BBB6200D0A0000005C
:101C20005B25733A25645D20E5BA8FE58FB7E587BC
:101C3000BAE99499EFBC8CE4B8BBE58AA8E7BB93FA
:101C4000E69D9FE4BCA0E8BE93200D0A00000000C2
:101C50002DE9F0478CB02F4D2FA70FF2C4080FF2DB
:101C6000C8090FF2CC0A00BFBA2233A137A0FFF790
:101C700017FD00BF00BF3B46BB222FA13FA08DE850
:101C80000007FFF70DFD00BF00243DE0202104A860
:101C9000FEF771FA04EBC40105EB8100FEF776FA5A
:101CA000C6B2002E07DD04EBC40005EB800132460E
:101CB00004A8FEF747FA94B900BF38A104EBC400AA
:101CC00005EB8000006A04AA2346CDE900200291BA
:101CD000C82219A135A0FFF7E3FC00BF12E000BF46
:101CE0003AA104EBC40005EB8000006A04AA234675
:101CF000CDE900200291CB220FA12CA0FFF7D0FC50
:101D000000BF00BF601CC4B2052CBFDB0CB0BDE837
:101D1000F08700006004002041726561000000004F
:101D200056657273696F6E0053697A650000000032
:101D300052656D61726B0000486172647761726513
:101D40005C5732355136342E630000005B25733A00
:101D500025645D20E5BD93E5898DE5A496E5AD9804
:101D6000E5AD98E582A8E68385E586B5E5A682E43B
:101D7000B88BEFBC9A200D0A000000005B25733A77
:101D800025645D207C2536737C253238737C2531B3
:101D900030737C253136737C0D0A00004F6E6C79F0
:101DA00020666F72204F5441000000005B25733A9B
:101DB00025645D207C2536647C253238737C253192
:101DC00030647C253136737C0D0A00006E6F6E65C1
:101DD000000000002DE9F047ADF5806D0024A1461C
:101DE00000254FF480616846FEF7C5F9A24600273A
:101DF000A046FFF72DFF00BF042340F25B122EA187
:101E000032A0FFF74DFC00BF00BF00F0D3F804463E
:101E100004EBC4013A4800EB8105286A40B900BFD1
:101E200040F2611224A137A0FFF73AFC00BFECE7B3
:101E3000286AB0F5304F08D900BF40F265121EA1E4
:101E40003FA0FFF72DFC00BFDFE700BF234640F2B5
:101E5000691219A149A0FFF723FC00BF4FEA044A09
:101E60005746DFF84C8104EBC401254800EB81059F
:101E70000121286A01EB9029002617E04FF48061C8
:101E80006846FEF778F904231A026946384601F0DD
:101E9000BDFB404600F040FC6946404600F040FD76
:101EA00007F5806708F58068701CC6B24E45E5D31B
:101EB0000DF5806DBDE8F0874861726477617265E9
:101EC0005C5732355136342E630000005B25733A7F
:101ED00025645D20E8AFB7E98089E68BA9E8A68193
:101EE000E8AFBBE58F96E79A84E5A496E5AD98E563
:101EF0009D97EFBC9A317E2564200D0A00000000FA
:101F0000600400205B25733A25645D20E5BD93E500
:101F1000898DE5AD98E582A8E59D97E6B2A1E69C9E
:101F200089E7A88BE5BA8FEFBC8CE8AFB7E9878D5E
:101F3000E696B0E8BE93E585A5200D0A00000000F6
:101F40005B25733A25645D20E5BD93E5898DE5AD9C
:101F500098E582A8E59D97E7A88BE5BA8FE8BF874B
:101F6000E5A4A7EFBC8CE8AFB7E9878DE696B0E9AA
:101F70008089E68BA9200D0A000000005B25733ADA
:101F800025645D20E58786E5A487E5B0862564E5C0
:101F90008FB7E5A496E5AD98E59D97E58699E5852B
:101FA000A5E58685E983A8466C617368200D0A0063
:101FB0000050000808B50020009000BF01216846CD
:101FC00001F0F4FB9DF800003038C0B200909DF89D
:101FD0000000002803DD9DF80000052814DB9DF8B3
:101FE000000040B900BF0423D92209A10D48FFF722
:101FF00057FB00BFE2E700BF0423DC2204A10AA0D4
:10200000FFF74EFB00BFD9E79DF8000008BD0000B8
:1020100048617264776172655C5732355136342E8F
:1020200063000000384600085B25733A25645D2094
:10203000E8AFB7E8BE93E585A5E6ADA3E7A1AEE7B7
:102040009A84E5A496E5AD98E7BC96E58FB7EFBC1A
:1020500088317E2564EFBC89200D0A0030B589B037
:102060000446202101A8FEF786F8002500BFE822DB
:102070001AA11FA0FFF714FB00BF202101A801F047
:1020800095FB00BF01ABEB2214A122A0FFF708FBD8
:1020900000BF6A4623A101A8FEF780F8C5B24DB97A
:1020A00000BFEF220DA129A0FFF7FAFA00BF002020
:1020B00009B030BD04EBC4022D4901EB820020229F
:1020C00001A9FEF73FF800F031FF00BFF52203A1A0
:1020D00028A0FFF7E5FA00BF0120E9E74861726434
:1020E000776172655C5732355136342E63000000DB
:1020F0005B25733A25645D20E8AFB7E8BE93E585BC
:10210000A5E78988E69CACE4BFA1E681AF3A200D43
:102110000A0000005B25733A25645D2025730D0AD3
:10212000000000005645522D252A642E252A642ED3
:10213000252A642D252A34642D252A32642D252A4A
:1021400032642D252A32642E253264005B25733AD1
:1021500025645D20E78988E69CACE4BFA1E681AFF9
:10216000E6A0BCE5BC8FE69C89E8AFAF200D0A0075
:10217000600400205B25733A25645D20E78988E6CA
:102180009CACE8AEBEE7BDAEE68890E58A9F200D28
:102190000A00000030B5044604254FF4302000F05A
:1021A00085F80546042D17D10C48006940F002005F
:1021B0000A49086108464461006940F0400008612E
:1021C0004FF4302000F072F805460448006941F6EB
:1021D000FD71084001490861284630BD00200240D9
:1021E00004200B49C96801F0010109B101200EE08A
:1021F0000749C96801F0040109B1022007E0044958
:10220000C96801F0100109B1032000E00420704703
:10221000002002400348006940F080000149086145
:10222000704700000020024078B506460C460425A1
:1022300000200090E80200F039F80546042D24D172
:102240001348006940F00100114908613480E80238
:1022500000F02CF80546042D10D1B01C0090200C85
:1022600000990880E80200F021F805460848006956
:1022700041F6FE7108400649086106E0044800691D
:1022800041F6FE71084002490861284678BD000009
:1022900000200240024803494860034848607047F4
:1022A0002301674500200240AB89EFCD00B502460F
:1022B0000423FFF795FF034603E0FFF791FF034672
:1022C000521E012B01D1002AF7D102B9052318466D
:1022D00000BD2DE9F0410246002500260020002324
:1022E0000024002791F803C00CF00F0591F803C0FB
:1022F0000CF0100CBCF1000F03D091F802C04CEAB6
:10230000050591F800C0BCF1000F31D01468002021
:102310002BE04FF0010C0CFA00F3B1F800C00CEA0E
:1023200003069E4220D183004FF00F0C0CFA03F7F6
:10233000BC4305FA03FC4CEA040491F803C0BCF169
:10234000280F06D14FF0010C0CFA00FCC2F814C0A3
:102350000AE091F803C0BCF1480F05D14FF0010C21
:102360000CFA00FCC2F810C0401C0828D1D314603D
:10237000B1F800C0BCF1FF0F34DD546800202EE03E
:1023800000F1080C4FF0010808FA0CF3B1F800C096
:102390000CEA03069E4221D183004FF00F0C0CFA89
:1023A00003F7BC4305FA03FC4CEA040491F803C0AC
:1023B000BCF1280F05D100F1080C08FA0CF8C2F89E
:1023C000148091F803C0BCF1480F07D100F1080C4C
:1023D0004FF0010808FA0CF8C2F81080401C0828D9
:1023E000CED35460BDE8F0810246002093680B40D4
:1023F0000BB1012000E00020704702460020D368A6
:102400000B400BB1012000E0002070474161704794
:10241000016170470AB1016100E04161704700004D
:1024200010B500BF952207A10AA0FFF739F900BF38
:1024300000BF104B962203A10FA0FFF731F900BF98
:1024400010BD000048617264776172655C426F6F15
:10245000742E63005B25733A25645D20E5BD93E52A
:10246000898DE78988E69CACE58FB7E4B8BAEFBC04
:102470009A0D0A003D0400205B25733A25645D2017
:1024800025730D0A0000000000B587B00121082067
:1024900000F090FB0121880300F06CFB10208DF808
:1024A0001B000002ADF8180003208DF81A0006A9E1
:1024B0002348FFF70EFF18208DF81B004FF4204033
:1024C000ADF8180003208DF81A0006A91C48FFF784
:1024D00000FF48208DF81B004FF48040ADF8180035
:1024E00003208DF81A0006A91548FFF7F2FE1548DB
:1024F00000F068FC0020ADF81000ADF80C00ADF85D
:102500000A000720ADF814000020ADF80800ADF86F
:102510000400ADF812004FF48270ADF806004FF4DD
:102520000070ADF80E0001A9064800F085FC0121FD
:10253000044800F03BFC012000F0DCFC07B000BDCB
:10254000000C01400038004000BFFEE708B5012143
:10255000082000F02FFB14208DF80300C020ADF8F8
:10256000000003208DF8020069460448FFF7B1FE21
:10257000C0210248FFF74CFF08BD0000000C0140DD
:1025800010B580210448FFF72FFF04460A20FFF70B
:10259000E9F8204610BD0000000C014010B50446CB
:1025A000012000F0ABF804E0601E04B20A20FFF73F
:1025B000D9F8002C03DDFFF7E3FF0028F4D1012058
:1025C00000F08EF8002C02DDFFF7DAFF58B1002092
:1025D00000F086F800BF7D2205A109A0FFF760F892
:1025E00000BF012010BD002000F07AF80020F9E7BC
:1025F00048617264776172655C4949432E630000EB
:102600005B25733A25645D204949432041434B20B3
:1026100074696D656F75740D0A00000070B5002552
:10262000002000F05DF8012000F068F800240DE0C3
:10263000012000F055F8FFF7A3FF012802D1802008
:1026400020410543002000F04BF8641C082CEFDB10
:10265000284670BD10B50446204600F04FF8012012
:1026600000F03EF8002000F03BF8012000F046F8B2
:1026700010BD70B5054600240FE0002000F030F8D2
:102680008021214101EA050000F038F8012000F026
:1026900027F8002000F024F8641C082CEDDB012052
:1026A00000F02CF870BD10B5012000F027F80120D3
:1026B00000F016F8002000F021F8002000F010F8DB
:1026C00010BD10B5002000F00BF8002000F016F847
:1026D000012000F005F8012000F010F810BD000006
:1026E00010B50446224640210348FFF793FE0A2016
:1026F000FFF738F810BD0000000C014010B504468B
:10270000224680210348FFF785FE0A20FFF72AF8BA
:1027100010BD0000000C014070B50446FFF7BAFD83
:102720002046FFF737FD0546FFF774FD284670BDCC
:1027300010B5002421E001F0C1F804461C2C07D19B
:1027400000BF89220DA113A0FEF7AAFF00BF10BD94
:102750001A2C0DD11B4890F8000400F0070038B97E
:1027600000BF8E2205A118A0FEF79AFF00BFEEE77A
:1027700000F046F81A2C00D1E9E7DCE74861726402
:10278000776172655C496E746572466C6173682E20
:10279000630000005B25733A25645D20E5BA8FE590
:1027A0008FB7E587BAE99499EFBC8CE4B8BBE58AAA
:1027B000A8E7BB93E69D9FE4BCA0E8BE93200D0A6A
:1027C00000000000140500205B25733A25645D209D
:1027D000E9A1B5E7BC93E586B2E58CBAE4B8ADE50E
:1027E000B7B2E697A0E99C80E8A681E58699E585E1
:1027F000A5E79A84E695B0E68DAE200D0A000000AC
:1028000010B50024104890F8000400F0070050B9FB
:102810000D48D0F800040121C1EBD0000B494A1447
:1028200002FB001407E00848D0F80004C00807497C
:102830004A1402FB00142046FFF76EFF02492046AF
:1028400000F06EF810BD00001405002000500008D4
:102850002DE9F04706460F4690464FF00009FFF776
:1028600019FD002420E006EB84091248814508D9AF
:1028700000BF5A2210A116A0FEF712FF00BF00BF32
:10288000FEE757F824104846FFF7CEFC0546042D16
:1028900009D000BF602208A117A0FEF701FF00BF0A
:1028A0002846BDE8F087641C4445DCD3FFF7B2FC42
:1028B0002846F6E7FFFF0008486172647761726599
:1028C0005C496E746572466C6173682E630000002B
:1028D0005B25733A25645D20696E7465726E616C68
:1028E00020666C617368206F7665722077726974F8
:1028F00074656E0D0A0000005B25733A25645D2047
:10290000696E7465726E616C20666C6173682077A5
:1029100072697465206572726F720D0A00000000A2
:1029200070B504460D464FF4807229462046FFF7E5
:102930008FFF70BD00BFFEE710B5FEF74DFE0248E9
:1029400000F000FA10BD00002800002070470000D1
:1029500070B5002100230F22C47804B3154C2468FD
:1029600004F4E064C4F5E064210AC1F10403CA4040
:10297000447804FA03F184781440214309010E4C91
:102980000678A155047804F01F050124AC400578B1
:102990006D11AD0005F1E025C5F8004109E00478AE
:1029A00004F01F050124AC40044D0678761145F86B
:1029B000264070BD0CED00E000E400E080E100E0A6
:1029C00002490143024A1160704700000000FA0505
:1029D0000CED00E010B50020074908701F222431DB
:1029E000A1F12300FDF7AEFB0021034880F8201081
:1029F00000F09CFA10BD00003C0400202DE9F047D7
:102A0000ADF5806D4FF000094FF480616846FDF729
:102A1000B2FBCA460025002604272C4C00BF112219
:102A20002BA131A0FEF73CFE00BF206A58B900BFC1
:102A3000132227A139A0FEF733FE00BF00200DF5B9
:102A4000806DBDE8F087206AB0F5304F08D900BF2F
:102A500017221FA13BA0FEF723FE00BF0020EEE7D8
:102A60004FF0000A5546414E184C206A00F2FF30E4
:102A70004FEA90294FF0000823E04FF48061684648
:102A8000FDF779FB04231A026946284600F0BEFDD3
:102A90003046FFF741FE0746042F01D00020CEE765
:102AA00069463046FFF73CFF0746042F01D000205F
:102AB000C5E705F5806506F5806608F1010000F0C0
:102AC000FF08C845D9D30120B9E700006004002001
:102AD0005574696C69746965735C4F6E6C696E6579
:102AE0004F54412E630000005B25733A25645D203E
:102AF000E58786E5A487E5B08630E58FB7E5A4963F
:102B0000E5AD98E59D97E58699E585A5E58685E996
:102B100083A8466C617368200D0A00005B25733A38
:102B200025645D2030E58FB7E5AD98E582A8E59D89
:102B300097E6B2A1E69C89E7A88BE5BA8F200D0A3B
:102B4000000000005B25733A25645D2030E58FB7F7
:102B5000E5AD98E582A8E59D97E7A88BE5BA8FE8F3
:102B6000BF87E5A4A7200D0A000000000050000860
:102B70007047000029B1064AD2690243044BDA616A
:102B800004E0034AD2698243014BDA6170470000D6
:102B90000010024029B1064A12690243044B1A612F
:102BA00004E0034A12698243014B1A617047000036
:102BB0000010024029B1064A92690243044B9A610F
:102BC00004E0034A92698243014B9A617047000016
:102BD0000010024029B1064AD2680243044BDA6071
:102BE00004E0034AD2688243014BDA607047000078
:102BF0000010024030B500210022002400232D4D9A
:102C00006D6805F00C0121B1042905D0082923D1F4
:102C100005E0294D056022E0274D05601FE0254DA8
:102C20006D6805F47012234D6D6805F4803402253B
:102C300005EB92421CB9214D554305600BE01D4D3B
:102C40006D6805F400351DB11C4D5543056002E06B
:102C5000194D5543056002E0174D056000BF00BFE8
:102C6000144D6D6805F0F0010909154D6B5C0568A0
:102C7000DD4045600F4D6D6805F4E061090A104DB7
:102C80006B5C4568DD4085600A4D6D6805F46051F8
:102C9000C90A0B4D6B5C4568DD40C560054D6D682C
:102CA00005F44041890B074D6B5CC568B5FBF3F536
:102CB000056130BD0010024000127A0000093D009D
:102CC0000000002010000020F0B504460D461E460E
:102CD0002CB124B1204601F07FFB00B90DB90020D2
:102CE000F0BDB4F80404904201D2B4F80424B24216
:102CF00000D33246B4F8063400200AE0E15C2954DF
:102D0000591CD4F80074B1FBF7FC07FB1C13411CE1
:102D1000C8B29042F2D3B4F80404801AA4F80404B0
:102D2000A4F806340120DBE710B5D8210448FDF7EC
:102D300022FAD823024A19460020FDF787FF10BD6A
:102D40003C04002001464FF4806001F5806108607A
:102D500000208880C8800881C8600874A1F580615F
:102D6000012070472DE9F041044688461646D4F804
:102D70000C5415B194F8100408B9BDE8F0816F88BF
:102D800033463A4641462046FFF79EFFD4F80C04EE
:102D90004068C4F80C0415B1284601F0EDFA94F827
:102DA0001004401E84F8100400BFE6E721B1028839
:102DB00042F04002028004E002884FF6BF731A40DE
:102DC0000280704710B504461148844208D10121A1
:102DD0008014FFF7FFFE0021A014FFF7FBFE16E0B2
:102DE0000C48844208D101210014FFF7D3FE0021D2
:102DF0002014FFF7CFFE0AE00748844207D10121E3
:102E0000C013FFF7C7FE0021E013FFF7C3FE10BD9C
:102E10000030014000380040003C004002460020E5
:102E200013890B400BB1012000E0002070470146E0
:102E3000888970478181704710B50022028802F4AA
:102E400041520B884C8823438C882343CC882343EE
:102E50000C8923434C8923438C892343CC89234306
:102E60001A430280838B4FF2FF74234083830B8AC3
:102E7000038210BD2DE9F04104460E4617460CB9F9
:102E8000BDE8F081BE4201D3384600E030468046BE
:102E9000002504E0FF2000F011F860556D1C454549
:102EA000F8D300BFECE710B5002000F023F810BD08
:102EB00010B5012000F01EF810BD000010B504464A
:102EC00000BF02210A48FFF7A9FF0128F9D12146D6
:102ED0000748FFF7AFFF00BF01210548FFF79EFF3E
:102EE0000128F9D10248FFF7A2FFC0B210BD0000CF
:102EF0000038004010B5044622464FF48051024885
:102F0000FFF788FA10BD0000000C014070B50446C0
:102F10000E4604B970BD002503E0605DFFF7CEFFEB
:102F20006D1CB542F9D300BFF4E7704710B5D82245
:102F300002490020FDF7DCFE10BD00003C0400202B
:102F400010B500F001F810BD0CB500200190009004
:102F50003348006840F480303149086000BF304891
:102F6000006800F4003000900198401C0190009827
:102F700018B90198B0F5A06FF1D12948006800F4A4
:102F8000003010B10120009001E000200090009876
:102F9000012843D12348006840F01000214908600F
:102FA0000846006820F0030008600846006840F00A
:102FB000020008601A48406819494860084640689D
:102FC00048600846406840F48060486008464068B1
:102FD00020F47C1048600846406840F4E8104860DF
:102FE0000846006840F08070086000BF0C48006828
:102FF00000F000700028F9D00948406820F0030074
:10300000074948600846406840F00200486000BF39
:103010000348406800F00C000828F9D10CBD0000FE
:10302000001002400020024010B58AB0202102A802
:10303000FDF7A1F8002400BF822218A11BA0FEF713
:103040002FFB00BF202102A800F0B0FB00BF02ABA5
:10305000852212A11EA0FEF723FB00BF01AA20A11A
:1030600002A8FDF79BF8C4B244B900BF89220BA1A6
:1030700025A0FEF715FB00BF0AB010BD202202A953
:103080002A48FDF75FF8FFF751FF00BF8F2203A129
:1030900027A0FEF705FB00BF00BFEDE748617264A3
:1030A000776172655C426F6F742E63005B25733AC3
:1030B00025645D20E8AFB7E8BE93E585A5E789887C
:1030C000E69CACE4BFA1E681AF3A200D0A00000007
:1030D0005B25733A25645D2025730D0A000000000E
:1030E0005645522D252A642E252A642E252A642D24
:1030F000252A34642D252A32642D252A32642D2573
:103100002A32642E253264005B25733A25645D20E3
:10311000E78988E69CACE4BFA1E681AFE6A0BCE508
:10312000BC8FE69C89E8AFAF200D0A003D0400206B
:103130005B25733A25645D20E78988E69CACE8AEA0
:10314000BEE7BDAEE68890E58A9F200D0A0000002C
:103150007047000010B51348006840F001001149A5
:10316000086008464068104908400E494860084613
:1031700000680E4908400B4908600846006820F4C2
:10318000802008600846406820F4FE0048604FF444
:103190001F008860FFF7D4FE4FF00060044908600C
:1031A00010BD0000001002400000FFF8FFFFF6FE17
:1031B00008ED00E008B540F22551194800F09FF8ED
:1031C000012816D1164800F081F9C0B200901548C8
:1031D0000088B0F5807F0BDC01226946124800F0C0
:1031E000F7FA124908600F480088401C0D49088012
:1031F00000BF40F224410A4800F081F801280DD1B7
:10320000074800F063F90948006820B105480188C3
:10321000054800F064F900200249088008BD00005C
:103220000044004014000020280000201800002066
:1032300021B1828942F40052828104E082894DF6F4
:10324000FF731A408281704710B5044620488442BB
:1032500009D101218803FFF7BDFC00214FF4804014
:10326000FFF7B8FC32E01B48844209D10121480431
:10327000FFF790FC00214FF40030FFF78BFC25E0B6
:103280001548844209D101218804FFF783FC0021FD
:103290004FF48020FFF77EFC18E01048844209D1EB
:1032A0000121C804FFF776FC00214FF40020FFF74E
:1032B00071FC0BE00A48844208D101210805FFF7A0
:1032C00069FC00214FF48010FFF764FC10BD000082
:1032D000003801400044004000480040004C0040DD
:1032E0000050004002460020B1F5007F00D100BF31
:1032F00013880B400BB1012000E00020704770B52F
:103300000246002400230025002040F66A16B14240
:1033100000D100BFC1F3421501F01F03012606FAD8
:1033200003F3012D02D19689334006E0022D02D12C
:10333000168A334001E0968A33400C12012606FAC1
:1033400004F41688344013B10CB1012000E00020D1
:1033500070BD000010B500BF772206A109A0FEF7DE
:103360009FF900BF40F204410E48FCF704FFFFF74D
:10337000DFF910BD48617264776172655C426F6FFE
:10338000742E63005B25733A25645D20E8AFB7E4D3
:10339000B88AE4BCA062696EE69687E4BBB6200DED
:1033A0000A00000014050020F0B5034600240026A2
:1033B0000025002040F66A17B94200D100BF184628
:1033C000C1F3421401F01F06012707FA06F5012C8C
:1033D00001D10C3004E0022C01D1103000E0143097
:1033E0001AB107682F43076002E00768AF43076020
:1033F000F0BD00002DE9F04786B005460E460024DA
:10340000A24600BFA1460027B08900B100BF2F46E9
:103410002C8A4CF6FF700440F08804432C82AC895F
:103420004EF6F3100440B08831890843718908438F
:103430000443AC81AC8A4FF6FF400440B08904439A
:10344000AC8201A8FFF7D6FB1F48874202D1DDF806
:1034500010A001E0DDF80CA0A88900F4004040B104
:103460000AEBCA0000EB0A1031684900B0FBF1F822
:1034700007E00AEBCA0000EB0A1031688900B0FBD4
:10348000F1F86420B8FBF0F004012009642101FB8D
:103490001089A88900F4004040B1322000EBC90037
:1034A000B0FBF1F000F00700044308E0322000EB2D
:1034B00009106421B0FBF1F000F00F0004432C81EF
:1034C00006B0BDE8F087000000380140014688885A
:1034D000C0F308007047C1F30802828070472DE9ED
:1034E000F04104460F4694F810041E2801DBBDE8A5
:1034F000F081B4F80804C01B1FFA80F83946404632
:10350000FEF707F9054605B9F1E7D4F80C6416B9DA
:10351000C4F80C5405E000E0766870680028FBD120
:10352000756094F81004401C84F8100400BFDEE7B6
:1035300000BFFEE710B50446642000F0A1F800F0DB
:10354000D9F8FFF7B0FCD820FFF7B8FCC4F3074068
:10355000FFF7B4FCC4F30720FFF7B0FCE0B2FFF7BD
:10356000ADFCFFF7A5FC642000F08AF810BD10B593
:10357000FEF78AFF10BD00002DE9F04104460D461C
:1035800016461F4645B900BF892214A118A0FEF7B0
:1035900087F800BFBDE8F081BE4201D3384600E0A5
:1035A00030468046642000F06BF8FFF77CFC032077
:1035B000FFF784FCC4F30740FFF780FCC4F3072047
:1035C000FFF77CFCE0B2FFF779FC42463146284623
:1035D000FFF750FCFFF76CFC00BFDBE7486172644B
:1035E000776172655C5732355136342E63000000C6
:1035F0005B25733A25645D207265637642756620AB
:103600006973204E554C4C0D0A0000002DE9F0471F
:1036100006460F4690461C4647B900BFA5220CA19E
:1036200010A0FEF73DF800BFBDE8F0873546B8EBC7
:10363000042F01D3200200E0404681464B4642461B
:1036400039462846FFF798FF05F5807500BFEBE780
:1036500048617264776172655C5732355136342E39
:10366000630000005B25733A25645D207265637614
:10367000427566206973204E554C4C0D0A000000BF
:1036800010B50446FFF70FFC0520FFF717FC0CE010
:103690000120FEF74FF8641E3CB900BF232208A1A9
:1036A0000CA0FDF7FDFF00BF06E0FF20FFF706FCC2
:1036B00000F001000028EBD100BFFFF7F9FB10BDBF
:1036C00048617264776172655C5732355136342EC9
:1036D000630000005B25733A25645D20776169749F
:1036E000206E6F7420627573792074696D656F75D3
:1036F000740D0A0010B5FFF7D6FB0620FFF7DEFBBE
:10370000FFF7D6FB10BD000070B504460D46164607
:10371000B6F5807F00D83DB900BF662212A117A080
:10372000FDF7BEFF00BF70BD6420FFF7A9FFFFF7E4
:10373000E1FFFFF7B8FB0220FFF7C0FBC4F307402F
:10374000FFF7BCFBC4F30720FFF7B8FBE0B2FFF7BD
:10375000B5FB31462846FFF7D9FBFFF7A9FB6420EC
:10376000FFF78EFF00BFDEE7486172647761726524
:103770005C5732355136342E630000005B25733AB6
:1037800025645D20777269746520706167652077B4
:10379000726F6E673A206275666665722069732083
:1037A000746F6F206269670D0A00000070B50446EF
:1037B0000D4600BF054800F007FE0028FAD12A4652
:1037C00021460248FFF7CEFA70BD00002800002015
:1037D000F0B503460E46144623B11BB1184600F05F
:1037E00003FE08B10020F0BDB3F80414D3F80004C0
:1037F000401AA04201D20020F5E7B3F80854002097
:1038000009E0315C5955691CD3F80024B1FBF2F78B
:1038100002FB1715401CA042F3D3B3F80404204464
:10382000A3F80404A3F808540120DCE770B50546AA
:103830000C468021284600F01FF8A04201D101204B
:1038400070BD0020FCE70000024602EA010008B15A
:103850001B2070470748D0F80004904201D21C207A
:10386000F7E70448D0F80004904201D91D20F0E7A2
:103870001E20EEE71405002030B502460B4600205E
:10388000002118E0545C80EA0420002410E000F4D9
:10389000004525B94FF6FF7505EA400006E04FF6F2
:1038A000FF7505EA400041F221056840651CECB255
:1038B000082CECDB491C9942E4D330BD2DE9F041E2
:1038C000A0B080216846FCF756FC002408E000BF49
:1038D0004320FDF7F9FE00BF4FF4FA70FDF72AFF11
:1038E000224800F071FD0028F1D14FF4806120489A
:1038F000FCF741FC0826002534E080216846FCF7EF
:103900003AFC684600F036F80446192C05D01B2C0A
:1039100003D01D2C01D01F2C01D1012000E000207C
:10392000074617B1681EC5B21AE01A2C03D120460B
:1039300020B0BDE8F0811C2C01D12046F8E7202CF6
:103940000DD10B4800EBC518802269464046FCF7B4
:10395000F9FB00BF0620FDF7B7FE00BF00BF00BFA8
:10396000681CC5B2B542C8DB2020E1E72800002072
:10397000140500202DE9F041A2B080468821684658
:10398000FCF7F9FB002400BF344800F01DFD0028BF
:10399000FAD1852269463148FFF7E4F99DF8000025
:1039A000042808D100BF0620FDF78EFE00BF1A20B4
:1039B00022B0BDE8F0819DF80000012806D000BFCC
:1039C0001520FDF781FE00BF1920F1E72448D0F84B
:1039D0000004401C2249C1F8000480220DF10301BB
:1039E0004046FCF7AFFB9DF801609DF80270394638
:1039F0003046FFF729FF04461B2C06D100BF1520D7
:103A0000FDF762FE00BF1B20D2E71D2C06D100BFD0
:103A10000620FDF759FE00BF1D20C9E71C2C06D16A
:103A200000BF1820FDF750FE00BF1C20C0E7002596
:103A30009DF8830045EA00259DF88400054329464A
:103A40004046FFF7F3FE044634B900BF1520FDF7EA
:103A50003BFE00BF1F20ABE72020A9E72800002085
:103A6000140500207CB5044600201D46164600299A
:103A70000BD0491ECDE90041044B6A462946304629
:103A800000F0D8F8009A002111707CBD6343000853
:103A900002E008C8121F08C1002AFAD17047704717
:103AA000002001E001C1121F002AFBD17047000075
:103AB0002DE9FF5F82B00021DDE90430020DDDF861
:103AC00040B0034318D044F61050A2F2FF324243F4
:103AD0001514119801281FD0A5EB0B00401C5FEABC
:103AE000000A4FF000064E4FDFF83891B0465046BE
:103AF00015D5CAF1000413E0119801244AA3012846
:103B000001D16FEA0B010298119AC0E90031C0E9B6
:103B1000024206B0BDE8F09FCBF10000DFE70446AB
:103B20000021404A491842EB0450CDE9001012E050
:103B3000E00707D032463B4640464946FCF721FDA8
:103B40008046894632463B4610461946FCF719FD29
:103B500006460F466410002CEAD1DDE90401DDE9D8
:103B60000023BAF1000F06DAFCF70BFD42464B4684
:103B7000FCF707FD05E0FCF776FD42464B46FCF7F7
:103B800072FD04460E460022284BFCF7F3FD03D8D5
:103B90004FF0FF30014607E00022254B204631461A
:103BA000FCF748FCFCF7CEFD102409E0002C0ADBF2
:103BB0000A220023FCF7CAFB039B30321A55641E0D
:103BC00050EA0102F2D1641C039AC4F111031444B7
:103BD000119A012A03D0012208430DD10AE00843BB
:103BE00004D000204FF0110B119072E7A3EB0B05EE
:103BF0006D1E0DE05B4504DD4FF0000205F101058F
:103C000004E003DA4FF00002A5F10105002AECD030
:103C100002981199C0E90231C0E9004579E7000036
:103C2000000014400000F03F300000000000F043AE
:103C30000000E03F2DE9FF4F95B09B4689460646C0
:103C400000250FE2252877D100242746F84A0121D4
:103C5000059400E0044316F8013F203B01FA03F00D
:103C60001042F7D130782A2811D06FF02F03307826
:103C7000A0F13002092A16D8059A44F0020402EB9A
:103C8000820203EB42021044761C0590EFE759F8DC
:103C9000042B0592002A03DA504244F400540590A4
:103CA00044F00204761C30782E2816D116F8010F45
:103CB00044F004042A280DD06FF02F023078A0F1D0
:103CC0003003092B09D807EB870302EB4303C7181E
:103CD000761CF3E759F8047B761C30786C280FD0FB
:103CE00006DC4C2817D068280DD06A2814D104E0CF
:103CF000742810D07A280FD10DE044F400140AE0A3
:103D000044F4801401E044F440147278824202D1F9
:103D100004F58014761C761C307866280BD013DCF2
:103D2000582877D009DC002875D04528F6D04628D9
:103D3000F4D047281AD19DE118E0632835D06428D3
:103D400079D0652812D195E1702873D008DC6728F6
:103D5000F1D069286FD06E280DD06F2806D1B5E05C
:103D600073282CD0752875D0782874D05A461799A6
:103D700090476D1C75E1C4F30250022809D0032856
:103D80000DD0D9F8001004280DD00D6009F10409F8
:103D900067E1D9F80010EA17C1E90052F6E7D9F84F
:103DA00000100D80F2E70D70F0E719F8041B8DF894
:103DB000001000208DF80100EA46012003E059F8C8
:103DC00004AB4FF0FF3061074FF0000102D40DE06B
:103DD00008F101018846B9420FDA8045F8DB1AF88C
:103DE00008100029F4D108E008F101018846814259
:103DF000FADB1AF808100029F6D105985B46A0EB0B
:103E0000080721463846179A00F094FA284400EB38
:103E1000080507E04DE029E10DE01AF8010B5A46CC
:103E200017999047B8F10108F7D25B46214638460A
:103E3000179A13E142E00A220092C4F302524FF0B3
:103E4000000A022A08D059F804CB032A4FEAEC7181
:103E50000AD00DE029E02AE009F1070121F007026C
:103E6000F2E802C1914609E00FFA8CFC4FEAEC71CE
:103E7000042A03D14FFA8CFC4FEAEC71002907DACF
:103E80000A460021DCF1000C61EB02012D2202E068
:103E9000220504D52B228DF80420012203E0E2073D
:103EA00001D02022F7E7904659E00A2102E01022D3
:103EB0000DE010214FF0000A00910BE010224FF0AE
:103EC000000A44F004040827009203E008224FF09F
:103ED000000A0092C4F30252022A05D059F804CB1A
:103EE0000021032A08D009E009F1070121F00702A7
:103EF000F2E802C1914605E01FFA8CFC042A01D1C8
:103F00000CF0FF0C4FF00008220728D5702806D0CF
:103F1000009B83F0100353EA0A0305D00EE0402211
:103F20008DF80420012208E05CEA010206D030226C
:103F30008DF804208DF8050002229046009B83F046
:103F4000080353EA0A030AD15CEA010201D16207BD
:103F500005D530228DF804204FF001087F1E582827
:103F600004D034A003900EA802900DE036A0F9E72B
:103F700053466046009AFCF7E9F984460398825C50
:103F80000298401E029002705CEA0100F0D1029893
:103F900006A9081A00F1200A600702D524F480342B
:103FA00000E00127574502DDA7EB0A0000E00020F2
:103FB00000EB0A01009005984144401A0590E00387
:103FC00006D45B462146179A059800F0B3F90544DC
:103FD000002706E001A85A46C05D179990476D1C5E
:103FE0007F1C4745F6DBE0030CD55B462146179A5C
:103FF000059800F09FF9054404E030205A461799CF
:1040000090476D1C0099481E00900029F5DC08E0DF
:10401000029802995A460078491C029117999047D4
:104020006D1CBAF10001AAF1010AF1DC65E10000A2
:10403000092801003031323334353637383961627E
:104040006364656600000000303132333435363742
:1040500038394142434445460000000000F058F919
:104060000544761C307800287FF4ECAD19B0284662
:10407000BDE8F08F620700D4062709F1070222F09D
:10408000070CFCE80223E14603F000485FEA080C55
:1040900002D00FF2702C0DE05FEA045C02D50FF243
:1040A000682C07E05FEAC47C02D00FF2602C01E0CC
:1040B000AFF2700C4FF0FF3823F00043CDF850C042
:1040C00065280CD006DC452809D046281DD0472895
:1040D0003DD13DE0662818D067287ED138E0002128
:1040E000112F01DB112000E0781CCDE9000106A9A9
:1040F0000EA8FFF7DDFCDDE90F010E9A0391002108
:10410000009207F1010A04914DE04FF00040009742
:10411000CDE9011006A90EA8FFF7CAFCDDE90F02E0
:1041200003920E9B11990022DDF80CA000930492DB
:1041300011B9791C00EB010AB7EB0A0004D4C0F1F5
:10414000FF3007F1010A0490AAEB0700019044E058
:10415000012F00DA01270021112F01DD112000E0DD
:104160003846CDE9000106A90EA8FFF7A1FCDDE95C
:104170000F010E9A0391002104910092BA46210783
:104180000CD40399514500DA8A46BAF1010F05DDD6
:10419000009AAAF10101515C302908D0B84202DA34
:1041A00010F1040F06DA0121CDE9011015E0AAF1A2
:1041B0000101E9E7002805DC049901440491AAEB18
:1041C000000102E0411C514500DD8A460499401A75
:1041D000401C01904FF000400290200704D4019849
:1041E000504501DBCDF8048000208DF84F00029887
:1041F0000DF14F07B0F1004F25D02B200E90029803
:104200004FF0020800280CDA404202902D200E9058
:1042100007E00A210298FCF783F83031029007F892
:10422000011DB8F10001A8F10108F2DC0298002894
:10423000EFD1791E0E980870307800F0200040F021
:10424000450007F8020D12A8C01B00F107081498DA
:10425000007800B1012000EB0A01019801EBE07148
:1042600005984144401A401E0590E00306D45B4681
:104270002146179A059800F05DF8054414980078D7
:1042800018B15A46179990476D1CE00324D55B4638
:104290002146179A059800F04DF805441CE0049853
:1042A000002807DBDDE90301884203DD0098405C5C
:1042B000179901E0179930205A469047049805F164
:1042C0000105401C04900198401E019004D12E204D
:1042D0005A46179990476D1CBAF10001AAF1010ADC
:1042E000DDDC05E017F8010B5A46179990476D1C65
:1042F000B8F10001A8F10108F4DC5B462146179AE9
:104300000598ABE62D0000002B0000002000000007
:104310002DE9F041044600251E461746880404D4C2
:1043200005E039462020B0476D1C641EF9D52846AB
:10433000BDE8F0812DE9F041044600251E46904677
:10434000C80301D5302700E02027880404D505E004
:1043500041463846B0476D1C641EF9D52846BDE875
:10436000F0814A68002A06D00A68531C0B6010705E
:104370004868401E4860704710B5002821D0114B96
:104380000022001F196803E0814203D80A464968E9
:104390000029F9D152B11368841A9C4204D10068F3
:1043A00018441060104602E0506000E0186039B117
:1043B00002680B1A934203D10B681A4402604968E1
:1043C000416010BD20000020014691F8100408B99A
:1043D000012070470020FCE70146B1F8040408B949
:1043E000012070470020FCE70146B1F80404D1F831
:1043F0000024904201D3012070470020FCE7000018
:10440000FEF79AFAFCF71EFCFFF7B1F81420FDF74F
:1044100091F900BF18222EA130A0FDF741F900BF8D
:10442000FEF782FCFCF7AAFCFDF7B8F94FE0324832
:10443000007810B1012848D115E0002400BF2C22DB
:1044400023A12EA0FDF72CF900BFFCF73BFE04468C
:1044500044B900BF32221EA13148FDF721F900BF47
:10446000FCF7DCFE32E0002400BF3B2218A12DA0A7
:10447000FDF716F900BFFEF7C1FA0446012C0DD076
:1044800000202E490870FEF751FD00BF412210A107
:104490002BA0FDF705F900BFFCF7C0FE00BF4422CA
:1044A0000BA132A0FDF7FCF800BFFEF793FAFCF772
:1044B00009FE044644B900BF4B2205A11848FDF788
:1044C000EFF800BFFCF7AAFE00E000BF00BFAEE7B8
:1044D000557365725C6D61696E2E63005B25733A7E
:1044E00025645D20426F6F744C6F61646572205368
:1044F00074617274210D0A001C0000205B25733A60
:1045000025645D20E69CAAE6A380E6B58BE588B02D
:104510004F5441E4BA8BE4BBB6200D0A0000000002
:10452000C44600085B25733A25645D204F6E6C69B4
:104530006E65204F54410D0A000000003C0400202D
:104540005B25733A25645D20E690ACE8BF90E7A850
:104550008BE5BA8FE587BAE994992CE58786E5A4BF
:1045600087E9878DE590AF0D0A0000005B25733A5F
:1045700025645D20415050E7A88BE5BA8FE58AA0FD
:10458000E8BDBDE5AE8CE688900D0A00F0B50B30B5
:10459000154D20F007010024144A0FE003688B42F8
:1045A0000BD38B4205D95E1A43184768C3E90067ED
:1045B00000E04368136002C004E0021D1068002898
:1045C000ECD12046002802D1286808B10020F0BDB7
:1045D000064A07481060074A121A22F00702C0E98B
:1045E000002401202860D7E72400002020000020BC
:1045F0001C090020180D0020DDDDDDDDDCBBBBDD8E
:10460000DDDDDDDDDDDDDDDD988888888888888872
:104610007777777777888888855555566666666692
:104620006666666666688888833333322222222271
:10463000222222222228888D5B25733A25645D2060
:1046400030E58FB7E5AD98E582A8E59D97E4BB8599
:10465000E4BE9B4F5441E4BDBFE794A8EFBC8CE897
:10466000AFB7E9878DE696B0E8BE93E585A5EFBCC8
:1046700088317E2564EFBC89200D0A005B25733AE2
:1046800025645D20E5BD93E5898DE58CBAE59F9FA6
:10469000E5B7B2E69C89E7A88BE5BA8FEFBC8CE75B
:1046A000A1AEE5AE9AE8A681E8A686E58699E590F2
:1046B00097EFBC9FEFBC88792F6EEFBC89200D0A65
:1046C000000000005B25733A25645D20E8B7B3E87D
:1046D000BDAC415050E5A4B1E8B4A5EFBC8C41504D
:1046E00050E7A88BE5BA8FE58FAFE883BDE5B7B299
:1046F000E68D9FE59D8FEFBC8CE8AFB7E9878DE62F
:1047000096B0E4B88BE8BDBD415050E7A88BE5BA40
:104710008F200D0A0000000038470008000000202C
:1047200028000000903A0008604700082800002098
:10473000F0100000A03A000800000000010203048D
:10474000010203040607080902040608000000002D
:104750000000000000000000000000000000000059
:04000005080000ED02
:00000001FF
